:020000040800F2
:10000000C007002089010008B1220008A9220008C9
:10001000AD22000845020008DD23000800000000B2
:10002000000000000000000000000000B9220008ED
:100030004902000800000000B5220008BD220008A7
:10004000A3010008A3010008A3010008A301000800
:10005000A3010008A3010008A3010008A3010008F0
:10006000A3010008A3010008A3010008A3010008E0
:10007000A3010008A3010008A3010008A3010008D0
:10008000A3010008A3010008A3010008A3010008C0
:10009000A3010008A3010008A3010008A3010008B0
:1000A000A3010008A3010008A3010008A3010008A0
:1000B000A3010008A3010008A3010008A301000890
:1000C000A3010008A3010008A3010008A301000880
:1000D000A3010008D1230008A3010008A301000820
:1000E000A3010008A3010008A301000800F002F822
:1000F00000F03AF80AA090E8000C82448344AAF188
:100100000107DA4501D100F02FF8AFF2090EBAE885
:100110000F0013F0010F18BFFB1A43F0010318473B
:10012000843A0000A43A0000103A24BF78C878C18D
:10013000FAD8520724BF30C830C144BF04680C60ED
:10014000704700000023002400250026103A28BF35
:1001500078C1FBD8520728BF30C148BF0B60704739
:100160001FB51FBD10B510BD00F031F81146FFF7E7
:10017000F7FF02F04BF900F04FF803B4FFF7F2FF7E
:1001800003BC00F057F800000948804709480047C1
:10019000FEE7FEE7FEE7FEE7FEE7FEE7FEE7FEE737
:1001A000FEE7FEE704480549054A064B7047000094
:1001B000C1220008ED000008C0010020C007002097
:1001C000C0030020C0030020704770477047754689
:1001D00000F02CF8AE4605006946534620F00700B3
:1001E000854618B020B5FFF7DDFFBDE820404FF091
:1001F00000064FF000074FF000084FF0000BAC4630
:10020000ACE8C009ACE8C009ACE8C009ACE8C0097A
:1002100021F007018D46704710B50446AFF300800A
:100220002046BDE81040FFF7A8BF00000048704717
:100230001000002001491820ABBEFEE72600020096
:1002400070470000FEE7000070470000014690F88C
:100250002100022816D10868D1E90FC3026822F0F4
:100260000E020260026822F001020260012000FA20
:1002700003F2CCF8042081F821000020002281F84C
:1002800020207047042088630120002281F820206C
:100290007047000080B590F82110022924D102682F
:1002A000116821F00E0111602F211368C4F20201C0
:1002B0008A4240F20401C4F2020123F001031360F8
:1002C00016DD3023C4F202039A421DD04423C4F247
:1002D00002039A421CD05823C4F202039A421DD151
:1002E0004FF4803322E000BF04218163012080BDF0
:1002F0000823C4F202039A420ED01C23C4F2020364
:100300009A420BD1102311E04FF480730EE000BF2E
:100310004FF480530AE000BF012307E001F1680CAD
:100320004FF08073624508BF4FF480130B600121CA
:1003300080F82110426B002180F820100AB190470C
:100340000021084680BD00002DE9F04F82B00E6804
:10035000002E00F0038141F20042C4F201020423A6
:1003600040F2004E904208BF03234FF6FF7CC4F2D8
:10037000010E009300240123C1F2100C4FF0000A7B
:100380004FF0000949E000BF012704F00C030F22E1
:100390009A402BEA020207FA03F34FEA9A051A433E
:1003A00046F82520D1F804B040F20C455FEACB2294
:1003B000DEF8082054BF22EA080242EA0802C4F22A
:1003C0000105CEF808202A685FEA8B2354BF22EA91
:1003D000080242EA08022A605FEA8B33DEF8042052
:1003E00054BF22EA080242EA08025FEACB33CEF8A1
:1003F0000420DEF800204FF0010354BF22EA080277
:1004000042EA0802CEF800200E680AF1010A36FA24
:100410000AF204F1040400F0A18003FA0AF816EAD3
:10042000080FF1D04E68664512DC122E56D8DFE870
:1004300006F0350B454955555555555555555555A6
:100440005555554D510000BFD1F80C9046E000BF06
:100450004FF6FF72C1F2210296420FDC0022C1F278
:10046000110296421AD00022C1F21202964215D011
:100470000022C1F22102964210D02FE00022C1F2E8
:10048000220296420AD00022C1F23102964205D0E1
:100490000022C1F23202964220D100BF8A684AB1DE
:1004A000012A14BFC0F81480C0F810804FF008096A
:1004B00014E000BF4FF0040910E000BFCA6802F169
:1004C00008090BE04FF0000908E000BFCA6802F11C
:1004D000040903E0CA6802F10C0900BF224606467F
:1004E000BAF1080F24BF203A043637680F2595402B
:1004F00027EA050509FA02F22A433260CA79D206D0
:100500007FF582AF41F21803C4F202031A68AEF518
:100510007E7642F001021A601A6802F0010201922E
:10052000019A2AF0030256F802B040F60002C4F223
:100530000102904210D040F60042C4F20102904203
:100540003FF422AF41F20002C4F20102009F904248
:1005500008BF022719E700BF002716E702B0BDE871
:10056000F08F0000002A08BF0904016170470000F5
:1005700040F2BC10C2F200000068704740F2000078
:1005800040F2BC11C2F20000C2F2000100780A6819
:10059000104408607047000080B542F20000C4F2C9
:1005A0000200016841F010010160032000F08EF8A4
:1005B0000F2000F005F800F027F8002080BD0000B3
:1005C00070B540F20006C2F2000640F2080132782F
:1005D000C2F200014FF47A730968B3FBF2F20446E9
:1005E000B1FBF2F1084600F063FB0F2C4FF0010560
:1005F00008D838B94FF0FF3021460022002500F01E
:1006000039F87460284670BD82B041F21800C4F217
:1006100002000168022241F001010160016801F05D
:10062000010101910199416841F0805141604068A8
:1006300000F08050009000980420C4F2010001688E
:1006400062F31A61016002B070470000002848BFE1
:100650007047C1B200F01F00012202FA00F04EF212
:100660000012CEF2000242EAD10121F0030108603B
:100670007047000010B54EF60C5CCEF2000CDCF8B2
:100680000030C3F3022E8EF00704042C28BF04248C
:10069000BEF103034FF0FF3E0EFA04F438BF00230F
:1006A000A14399400EFA03F39A43114300F00F025D
:1006B00000F160430901043A03F5644362440028F1
:1006C00048BF02F10C03197010BD00004EF60C512A
:1006D000CEF200010A684FF6FF031A4060F30A22C7
:1006E00042F0806040F0FD70086070472DE9F043F3
:1006F00081B0002800F0858042F20008C4F20208B0
:100700000446D8F800000D4600F0070088420CD2DD
:10071000D8F8000020F007002843C8F80000D8F8F7
:10072000000000F00700A8426BD1206841F20409E4
:100730008107C4F2020917D5410705D5D9F8001081
:1007400041F4E061C9F80010010705D5D9F800109F
:1007500041F46051C9F80010D9F80010A26821F0E6
:10076000F0011143C9F80010C00741D1D8F80000CA
:1007700000F00700A8420CD9D8F8000020F00700CC
:100780002843C8F80000D8F8000000F00700A8428D
:1007900037D12068410707D5D9F80010E26821F465
:1007A000E0611143C9F80010000708D5D9F800002E
:1007B000216920F4605040EAC100C9F80000D9F86E
:1007C000002002F00C00082841F20020C0F27A005C
:1007D00050D143F69433C2F38341C0F60003595C11
:1007E000D2033BD440F60010C0F23D00484341E044
:1007F000606802280AD001282AD159F8041C89030C
:1008000008D4012001B0BDE8F08300BF59F8041CF2
:100810008901F6D5D9F8001021F003010843C9F881
:100820000000FFF7A5FE064641F28837D9F8000020
:10083000616800F00C00B0EB810F97D0FFF798FED5
:10084000801BB842F2D9032001B0BDE8F08300BF9D
:1008500059F8041C8907D4D5DCE700BFD9F800207B
:1008600043F69233C2F34042C0F600039A5C484319
:10087000B0FBF2F0D9F8001043F67A32C1F303115D
:10088000C0F60002515C40F2080220FA01F140F289
:100890000400C2F200000068C2F200021160FFF71B
:1008A0008FFE002001B0BDE8F083000040F2080098
:1008B00041F20401C2F20000C4F2020100680968BA
:1008C00043F68A32C1F30221C0F60002515CC840EF
:1008D0007047000040F2080041F20401C2F200003B
:1008E000C4F202010068096843F68A32C1F3C221EA
:1008F000C0F60002515CC840704700002DE9F0418D
:1009000082B0002868D00446007841F20006C00793
:10091000C4F2020625D0706800F00C0004281BD039
:10092000706800F00C00082802D17068C00313D46E
:100930006068002800F06881B0F5A02F00F07C818D
:10094000B0F5803F00F07C81306820F4803030606A
:10095000306820F4802076E13068800301D560683B
:10096000D0B32078800718D5706810F00C0F07D02E
:10097000706800F00C0008286ED17068C0036BD45A
:100980003068800702D52069012825D13068616967
:1009900020F0F80040EAC1003060207800071FD442
:1009A0002078400732D4E56995B1706800F00C00FA
:1009B000082840F08F80012D0ED07068216A00F465
:1009C00080328A4208D1616A00F47010884203D1F3
:1009D000002002B0BDE8F081012002B0BDE8F08146
:1009E000A069002862D00020C4F242200121C0F892
:1009F0008014FFF7BDFD0546706A800700F18C800A
:100A0000FFF7B6FD401B0228F6D92AE1F06910F085
:100A1000805808D1F06940F08050F061F06900F032
:100A200080500090009847F20007C4F20007386831
:100A3000C00529D4386840F480703860FFF798FD0D
:100A4000054600BF3868C0051ED4FFF791FD401B66
:100A50006428F7D905E100BF2069002840F20000B2
:100A6000C4F2422000F0828001210160FFF780FD86
:100A7000054600BF306880073FF588AFFFF778FD77
:100A8000401B0228F6D9ECE0E068002800F08080E6
:100A9000052800F09780012800F09880306A20F047
:100AA00001003062306A20F0040092E00020C4F2BD
:100AB00042200021C0F88014FFF75AFD054600BF10
:100AC000706A80077FF56CAFFFF752FD401B02286C
:100AD000F6D9C6E00027C4F2422700203866FFF7A7
:100AE00047FD022D05460BD13068800140F1BE80E4
:100AF000FFF73EFD401B02284FF00300F4D968E7E2
:100B0000306880017FF564AFFFF732FD401B02289B
:100B10004FF00300F4D95CE740F20800C2F2000095
:100B2000006844F6D351C1F26201A0FB0101480AFA
:100B3000019000BF00BF0198411E002801913FF4C1
:100B40002FAF00BF0198411E002801913FF428AF4C
:100B500000BF0198411E002801913FF421AF00BF62
:100B60000198411E00280191E4D119E7002101609C
:100B7000FFF7FEFC054600BF306880077FF50DAF2C
:100B8000FFF7F6FC401B02284FF00300F4D920E7E2
:100B9000306A20F001003062306A20F004003062D8
:100BA000FFF7E6FC054641F2883700BF306A800750
:100BB00020D5FFF7DDFC401BB8424FF00300F5D90C
:100BC00007E700BF306A40F004003062306A40F04E
:100BD00001003062FFF7CCFC054641F2883700BFC8
:100BE000306A800706D4FFF7C3FC401BB842F7D930
:100BF00037E000BFB8F1000F7FF4D5AEF06920F008
:100C00008050F061CFE600BF306820F48030306063
:100C1000306820F480203060FFF7AAFC054600BF52
:100C2000306880037FF59DAEFFF7A2FC401B64286F
:100C30004FF00300F4D9CCE6306840F480203060F7
:100C4000306840F480303060FFF792FC054600BF0A
:100C5000306880033FF585AEFFF78AFC401B6428AF
:100C6000F6D9032002B0BDE8F08100BF206AB0F5DC
:100C7000803F05D17168A26821F400311143716091
:100C80007168626A21F47411114308437060012095
:100C90003866FFF76DFC0446306880013FF598AE7A
:100CA000FFF766FC001B02284FF00300F4D990E622
:100CB000411E0020B0EB116F1CBF012070474EF2A7
:100CC0001002CEF2000251604EF62351CEF2000126
:100CD000F0230B700721906011607047B0B590F859
:100CE0003C20012A04BF0220B0BD01F108053CCD23
:100CF000D1E900CE23F47C5322F470521A432EF42F
:100D0000F0431A432CF4E0431A4324F4C0431A433B
:100D10002A43C96922F480420368114359640021BF
:100D200080F83C100846B0BD10B590F83C20012A70
:100D30004FF0020233D080F83D200268D2F804E080
:100D4000D2F808C00C682EF07003234340F2FF7401
:100D5000C4F20004A24253600ADCB2F1804F13D007
:100D600040F20043C4F200039A420DD011E000BFEC
:100D700042F60043C4F201039A4205D040F6000354
:100D8000C4F200039A4204D149682CF0800319434D
:100D900091600121002280F83D1080F83C2010462F
:100DA00010BD0000002804BF0120704710B50446A4
:100DB00090F83D0028B9002084F83C00204600F05F
:100DC00067F8022084F83D00206840F2FF73026853
:100DD000C4F2000342F6004C9842C4F2010C15DC48
:100DE000B0F1804F1AD040F20041C4F200018842B5
:100DF00014D0984218DCB0F1804F1DD040F2004171
:100E0000C4F20001884217D01AE000BF604505D047
:100E100040F60001C4F200018842EAD1A16822F044
:100E200070020A439842E6DD604505D040F60001B5
:100E3000C4F20001884203D1216922F440720A43BE
:100E4000A36922F08001D4F804E0E2681943604508
:100E50000160C262C0F828E002D16169CCF83010AC
:100E600001214161002084F8461084F83E1084F886
:100E70003F1084F8401084F8411084F8421084F840
:100E8000431084F8441084F8451084F83D1010BDD8
:100E900081B0006842F60041C4F20101884201D0ED
:100EA00001B0704741F21800C4F20200016841F439
:100EB00000610160006800F400600090009801B0DB
:100EC0007047000080B590F83C20012A4FF00202E4
:100ED00000F0C28080F83D20D0F800C04FF6777255
:100EE000DCF8083023EA0202CCF808200B684F2B0C
:100EF00028DC1F2B44DD202B45D0302B43D0402B4A
:100F000040F0AC80D1F804E0C968DCF82030DCF8AF
:100F1000202022F00102CCF82020DCF8182022F05A
:100F2000F00242EA011123F00A0242EA0E02CCF872
:100F30001810CCF82020DCF8081041F0470121F00F
:100F4000300180E06F2B27DDB3F5005F48D0B3F5AB
:100F5000805F7AD0702B40F08180D1E901E3C968CD
:100F6000DCF8082043EA0E0322F47F4243EA012121
:100F70001143CCF80810DCF8081041F0770162E06A
:100F80000BB1102B6AD1DCF8081021F07001194365
:100F900041F0070157E000BF502B35D0602B5DD1E9
:100FA000D1F804E0C968DCF82030DCF8202022F019
:100FB0001002CCF82020DCF8182022F4704242EA1B
:100FC000013123F0A00242EA0E12CCF81810CCF83E
:100FD0002020DCF8081041F0670121F0100132E018
:100FE000D1E901E3C968DCF8082043EA0E0322F4E2
:100FF0007F4243EA01211143CCF80810DCF80810C5
:1010000041F480411FE000BFD1F804E0C968DCF87A
:101010002030DCF8202022F00102CCF82020DCF87F
:10102000182022F0F00242EA011123F00A0242EAFB
:101030000E02CCF81810CCF82020DCF8081041F093
:10104000570121F02001CCF808100022012180F87E
:101050003D10002180F83C10104680BD0122F5E7CC
:10106000002804BF012070472DE9F04F81B00446ED
:1010700090F83D000D4628B9002084F83C00204639
:1010800000F094F8022084F83D00206844F2070242
:10109000816840F2FF73914381600268C4F20003EB
:1010A00042F6004C9842C4F2010C15DCB0F1804FBE
:1010B0001AD040F20041C4F20001884214D0984294
:1010C00018DCB0F1804F1DD040F20041C4F20001A5
:1010D000884217D01AE000BF604505D040F60001F5
:1010E000C4F200018842EAD1A16822F070020A43EA
:1010F0009842E6DD604505D040F60001C4F20001EB
:10110000884203D1216922F440720A43A36922F084
:101110008001D4F804E0E268194360450160C262CE
:10112000C0F828E002D16169CCF830104FF0010915
:10113000C0F814908268D0F818E0D0F820C0D5E943
:101140000038D5E9027B43EA020AAB694FF6FF712A
:101150002EEA010E47EA03234FF6FC47BB43D5E9CD
:1011600007724BEA0E012E69194341EA072141EA51
:10117000061141EA02312CF022026B6942EA0802B0
:1011800042EA0312C0F808A08161026284F8469026
:1011900084F83E9084F83F9084F8429084F843901D
:1011A00084F83D90002001B0BDE8F08F80B586B096
:1011B00001680020B1F1804F059001D006B080BDDC
:1011C00041F21801C4F202014A6842F001024A6089
:1011D0004A6802F001020192019A0A6842F0040290
:1011E0000A60096801F00401019101990321CDE928
:1011F0000210049040F60000C4F2010002A9FFF7BB
:10120000A3F806B080BD000080B590F83E2090F8AD
:101210003F3090F842E090F843C004290AD0B9B9B1
:10122000012A4FF0010208BFBEF1010F34D0104671
:1012300080BD00BF012B4FF0010208BFBCF1010FC0
:10124000F5D1022180F83F1080F8431000681EE0BD
:10125000012A4FF0010208BF012BE8D1BEF1010FB6
:10126000E5D1BCF1010FE2D1022280F83E2080F8E6
:101270003F2080F8422080F8432091B10068016A45
:1012800021F001010162016A41F0010101621021B6
:101290006FF0100209E000BF022180F83E1080F8D4
:1012A0004210006801216FF00102036A1A400262D5
:1012B000026A114301620168002241F001010160EC
:1012C000104680BD042905D031B902686FF0010CC9
:1012D0000BE000BF026806E00268136A23F0010316
:1012E0001362136A13626FF0100C136A03EA0C03A3
:1012F0001362136A1362D2F820C041F211131CEA80
:10130000030F06D1D2F820C040F244431CEA030F79
:1013100016D004291AD039B9012180F83E1080F87E
:1013200042100020704700BF012180F83E1080F875
:101330003F1080F8421080F843100020704700BF33
:10134000136823F0010313600429E4D1012180F81C
:101350003F1080F8431000207047000080B586B031
:10136000014640F60000C4F20100096800F5105380
:1013700000229942049201D006B080BD41F21801CA
:10138000C4F202010A6842F004020A60096801F02E
:101390000401019101994FF480710291022103919E
:1013A000059102A9FEF7D0FF06B080BD2DE9F043FC
:1013B00090F83C30012B04BF0220BDE8F0834FEAD7
:1013C000B202032A3CD8DFE802F0034381BD00BF2C
:1013D000036842F600461D6A1A6AC4F2010622F04A
:1013E00001021A621A465C6852F818CFB3428E683E
:1013F000D1F800E025F0020545EA06050CD1CE68DB
:10140000D1E9057824F4407425F00C0526F0040693
:101410003C43354344EA08042CF0730747EA0E07BF
:101420005C609F614F6809695F631D629F6947F057
:1014300008079F619F6927F004079F61B2E000BF22
:101440000121002280F83C200846BDE8F08300BF5F
:10145000036842F600461D6A1A6AC4F2010622F0C9
:1014600010021A621A46D3F804C052F8184FB34259
:101470008E68D1F800E025F0200545EA061510D168
:10148000CE68D1E9058725F0C0096FF0400505EA6F
:1014900006152CF4406647EA080745EA090546EABE
:1014A000870C24F4E64444EA0E27C3F804C09F6185
:1014B0004F6809699F631D629F6947F400679F61D8
:1014C0009F6927F480679F616BE000BF036842F665
:1014D00000461D6A1A6AC4F2010622F480721A627A
:1014E0001A46D3F804C052F81CEFB3428E680C6859
:1014F00025F4007545EA062511D1CE68D1E90587A6
:1015000025F44069360240F2FF4526EA05052CF431
:10151000405647EA080745EA090546EA071C2EF047
:1015200073072743C3F804C0DF614F680969DF63AD
:101530001D62DF6947F00807DF61DF6927F00407F4
:10154000DF612FE0036842F60047D3F820C01A6A33
:10155000C4F2010722F480521A621A465C6852F8FB
:101560001C5FD1F800E08E68BB4204D14F6924F4BF
:10157000804444EA87142CF4005747EA063725F4E0
:10158000E64646EA0E265C60DE614E6809691E6426
:101590001F62DF6947F40067DF61DF6927F4806756
:1015A000DF6109021368194311600021002280F8ED
:1015B0003C200846BDE8F083002804BF01207047A6
:1015C00010B5044690F83D0028B9002084F83C008E
:1015D000204600F067F8022084F83D00206840F2C1
:1015E000FF730268C4F2000342F6004C9842C4F252
:1015F000010C15DCB0F1804F1AD040F20041C4F26A
:101600000001884214D0984218DCB0F1804F1DD000
:1016100040F20041C4F20001884217D01AE000BF36
:10162000604505D040F60001C4F200018842EAD1CD
:10163000A16822F070020A439842E6DD604505D0B9
:1016400040F60001C4F20001884203D1216922F46E
:1016500040720A43A36922F08001D4F804E0E268F2
:10166000194360450160C262C0F828E002D1616997
:10167000CCF8301001214161002084F8461084F834
:101680003E1084F83F1084F8401084F8411084F82C
:10169000421084F8431084F8441084F8451084F80C
:1016A0003D1010BD7047000041B1082910D0042939
:1016B00014BF00F1410200F13F020BE090F83E2020
:1016C000012A1CBF01207047022280F83E2013E04F
:1016D00000F140021278012A1CBF0120704702224B
:1016E000082907D0042914BF80F8412080F83F2042
:1016F00002E000BF80F84020006801F01F010122D5
:10170000036A8A4023EA02010162036A42F6444105
:10171000C4F201011A43A1F14403984202620FD0BE
:1017200040F2FF71C4F20001884213DCB0F1804F37
:101730001CD040F20041C4F20001884216D01CE0E7
:101740000A6842F400420A6040F2FF71C4F20001EC
:101750008842EBDD42F60041C4F20101884205D027
:1017600040F60001C4F20001884206D1816801F010
:101770000701062904BF00207047016841F00101FC
:10178000016000207047000080B5026801F01F0C66
:10179000012303FA0CFE136A42F6444C23EA0E03BB
:1017A000C4F2010C1362D2F820E0ACF144039A4277
:1017B000C2F820E013D15CF824EC41F211131EEAC8
:1017C000030F0CD1D2F820E040F244431EEA030F8D
:1017D00005D1DCF8003023F40043CCF80030D2F817
:1017E00020C041F211131CEA030F06D1D2F820C029
:1017F00040F244431CEA030F14D0082918D00429EE
:101800000AD000294FF0010114BF80F8411080F880
:101810003E10002080BD00BF012180F83F10002055
:1018200080BD00BF136823F0010313600829E6D1CF
:10183000012180F84010002080BD000070470000AA
:1018400070470000B0B582B0044600680168C36804
:10185000426901F02F05202D03F0200506D12DB19E
:10186000204602B0BDE8B04000F032BD5FEA017C26
:101870001EBF02F0010E03F4907212EB0E0253D160
:10188000226B012A05D111F0100218BF13F01002CB
:1018900036D10A0622D513F080021FD094F84110E9
:1018A00021293FD1A168B1F5805F03D121690029C9
:1018B00000F07082216A4A1C226209784160E18C42
:1018C00001390A04E1842DD1C16821F08001C16091
:1018D000C16841F04001C16002B0B0BD490621D5E8
:1018E00013F040011ED0C16821F04001C1602021E9
:1018F000204684F8411002B0BDE8B04000F0D2BCF0
:1019000000210191016801914168019101994069AB
:10191000400613D4A08DE18DE28D002A18BF8842C5
:1019200040F0BA8102B0B0BDCA0718BF13F480728C
:1019300040F0B6804A0700F1B980BEE0E06B016874
:1019400049688AB2002AEDD0A38D9A42EAD2E18595
:101950008069202800F09C80206850E8030F2168EF
:1019600020F4807041E80302DAB1206850E8030FE8
:10197000216820F4807041E8030292B1206850E8A9
:10198000030F216820F4807041E803024AB1206807
:1019900050E8030F216820F4807041E80302002A18
:1019A000DAD1206850E8050F216820F0010041E8F5
:1019B0000502DAB1206850E8050F216820F0010027
:1019C00041E8050292B1206850E8050F216820F037
:1019D000010041E805024AB1206850E8050F21687E
:1019E00020F0010041E80502002ADAD1206850E821
:1019F000050F216820F0400041E80502DAB12068B7
:101A000050E8050F216820F0400041E8050292B13E
:101A1000206850E8050F216820F0400041E80502E9
:101A20004AB1206850E8050F216820F0400041E8E5
:101A30000502002ADAD1202084F842000020206329
:101A4000206850E8030F216820F0100041E80302ED
:101A5000DAB1206850E8030F216820F0100041E857
:101A6000030292B1206850E8030F216820F01000B3
:101A700041E803024AB1206850E8030F216820F0D2
:101A8000100041E80302002ADAD1E06BFEF7DEFB2A
:101A900002206063A08DE18D401A81B2204674E17E
:101AA000626C42F0010262644A0706D5BEF1000F83
:101AB00003D0626C42F0020262648A0706D5BEF16E
:101AC000000F03D0626C42F004026264BCF1000FAC
:101AD00009D545EA0E02B2FA82F2520903D1626CCC
:101AE00042F008026264626C002A3FF41BAF11F0FE
:101AF000200118BF002D03D0204600F0E9FB20682C
:101B00004069616C00F0400001F00801401800F0ED
:101B1000B58000BF206850E8030F216820F4907062
:101B200041E80302BAB3206850E8030F216820F4AB
:101B3000907041E8030272B3206850E8030F2168F7
:101B400020F4907041E803022AB3206850E8030FA4
:101B5000216820F4907041E80302002ADAD11AE0EB
:101B6000206850E8050F216820F0010041E80502D7
:101B7000DAB1206850E8050F216820F0010041E843
:101B8000050292B1206850E8050F216820F001009D
:101B900041E805024AB1206850E8050F216820F0AD
:101BA000010041E80502002ADAD1206B012824D186
:101BB000206850E8030F216820F0100041E803027C
:101BC000DAB1206850E8030F216820F0100041E8E6
:101BD000030292B1206850E8030F216820F0100042
:101BE00041E803024AB1206850E8030F216820F061
:101BF000100041E80302002ADAD1202084F84200D4
:101C0000002020632068406940063FD5206850E8E6
:101C1000050F216820F0400041E80502DAB1206894
:101C200050E8050F216820F0400041E8050292B11C
:101C3000206850E8050F216820F0400041E80502C7
:101C40004AB1206850E8050F216820F0400041E8C3
:101C50000502002ADAD1E06BC0B142F2C521C0F61C
:101C600000014163FEF716FB00283FF45BAEE06B1A
:101C7000416B02B0BDE8B040084700BF2046FFF707
:101C8000DFFD0020606402B0B0BD00BF204602B09E
:101C9000BDE8B040FFF7D4BD401A216851E8031FEA
:101CA000226821F4907142E80313DBB1216851E806
:101CB000031F226821F4907142E8031393B1216855
:101CC00051E8031F226821F4907142E803134BB1DD
:101CD000216851E8031F226821F4907142E8031340
:101CE000002BDAD1216851E8051F226821F001019B
:101CF00042E80513DBB1216851E8051F226821F095
:101D0000010142E8051393B1216851E8051F2268DB
:101D100021F0010142E805134BB1216851E8051F8C
:101D2000226821F0010142E80513002BDAD12021BD
:101D300084F8421000212163216851E8031F2268C2
:101D400021F0100142E80313DBB1216851E8031FC1
:101D5000226821F0100142E8031393B1216851E891
:101D6000031F226821F0100142E803134BB12168E0
:101D700051E8031F226821F0100142E80313002BF1
:101D8000DAD1022281B22046626302B0BDE8B040DF
:101D9000FFF754BD216A31F8022B6FF35F224260D6
:101DA00021628CE5002804BF0120704710B504466D
:101DB00090F8410028B9002084F84000204600F047
:101DC00063F8242084F841002068D4E90212C36833
:101DD00023F40053C360036923F440531A430261A0
:101DE000D4E904231143C268194341F20C639A43B6
:101DF0001143C1604169A26921F44071114343F666
:101E00000002C4F201029042416103D0FEF74EFD90
:101E100002E000BFFEF75EFD6268192148439100B1
:101E2000B0FBF1F048F21F51C5F2EB11A0FB01230A
:101E30005A094FF69C73C0F6FF7302FB030032236E
:101E400003EB0010A0FB0101F02303EA511320680B
:101E500003EB0212C1F3431111448160016921F4C3
:101E600090410161416921F02A014161C16841F459
:101E70000051C16000202021606484F8411084F882
:101E80004210606310BD000070B586B040F60004DB
:101E9000C4F20104006804F540510026884204960B
:101EA00002D006B070BD00BF41F21800C4F20200BB
:101EB000016802AD41F480410160016801F4804194
:101EC00001910199016841F004010160006829460F
:101ED00000F00400019001984FF40070029002207D
:101EE0000390032005902046FEF72EFA4FF4806001
:101EF000CDE90206204629460496FEF725FA25205C
:101F000001210022FEF7B6FB2520FEF79FFB06B05D
:101F100070BD000090F84230202B1CBF022070479B
:101F200000294FF0010318BF002A01D1184670475D
:101F300000230363816222218285C285436480F885
:101F400042100169006819B1C16841F48071C16033
:101F50004169002341F001014161C16841F0200164
:101F6000C16018467047000070B540F27411C2F2AB
:101F7000000100680968884218BF70BD40F22C104B
:101F8000C2F200000421FFF73FF940F27005C2F2EF
:101F9000000595F8582095F8591095F85A00562ADA
:101FA00008BF45290AD0502A4FF0030608BF4F2921
:101FB0002FD153282DD1A81D022603E04C28F2D1A1
:101FC000281D0126B5F85D1009BA090C018095F8A5
:101FD0005B00B5F85F10287048BA01F0F9FB44F2D5
:101FE0000004C4F21C64214601F0E0FAB5F8611067
:101FF000686348BA01F0ECFB214601F0D7FAB5F866
:102000006310A86348BA01F0E3FB214601F0CEFA61
:10201000E86340F2741005F15801C2F200000D228D
:10202000AE60BDE87040FFF775BF00002DE9F043DA
:1020300081B0044690F84100202840F0B1808846E5
:1020400000294FF0010000F0D6801646002A00F06B
:10205000D2800020606421201D4684F84100FEF7F4
:1020600087FAA684E684A1680646B1F5805F03D1AD
:102070002069002800F0988047464FF00008E18C66
:102080002068002900F0968005F101090BE000BFEF
:1020900047B317F8011B4160E18C0139E184E18C01
:1020A000002900F0878001680906F1D4B9F1000F1A
:1020B0000AD0EDB1FEF75CFA801BA84218D8206860
:1020C00001680906F6D5E3E701680906E0D401686E
:1020D00009065CBF01685FEA0161D9D4016809069D
:1020E000F2D5D5E738F8021B00276FF35F21D2E75E
:1020F000206850E8030F216820F4D07041E8030203
:10210000BAB3206850E8030F216820F4D07041E88A
:10211000030272B3206850E8030F216820F4D070E6
:1021200041E803022AB3206850E8030F216820F435
:10213000D07041E80302002ADAD11AE0206850E8A2
:10214000050F216820F0010041E80502DAB120689E
:1021500050E8050F216820F0010041E8050292B126
:10216000206850E8050F216820F0010041E80502D1
:102170004AB1206850E8050F216820F0010041E8CD
:102180000502002ADAD1202084F8410084F84200B8
:10219000002084F84000032001B0BDE8F08300BFB8
:1021A000022001B0BDE8F0830027E18C20680029FF
:1021B0007FF46AAF0168490619D4FDB1691C0DD1DD
:1021C0000168490613D4016849065CBF01685FEAEB
:1021D00041610CD401684906F2D508E0FEF7C8F960
:1021E000801BA8420AD8206800684006F6D5202047
:1021F00084F84100002001B0BDE8F083206850E879
:10220000030F216820F4D07041E80302002A3ED079
:10221000206850E8030F216820F4D07041E80302E1
:10222000AAB3206850E8030F216820F4D07041E879
:10223000030262B3206850E8030F216820F4D070D5
:1022400041E80302002AD9D121E000BF206850E80C
:10225000050F216820F0010041E80502002A3FF443
:1022600092AF206850E8050F216820F0010041E896
:102270000502002A3FF487AF206850E8050F216867
:1022800020F0010041E80502002A3FF47CAF2068FD
:1022900050E8050F216820F0010041E80502002AFE
:1022A000D4D170E770470000FEE70000FEE70000B1
:1022B000FEE700007047000070470000FEF75EB9BF
:1022C00070470000406A0021C185C184FFF7B8BA99
:1022D00081B090F84210222921D183680246B3F5DB
:1022E000805F09D152F8281F52F8183C002B63D0A8
:1022F00003685B680AE000BF52F8281F13B903693E
:10230000002BF5D003685B6803F07F030B70116846
:1023100001311160C18D01390A04C18502D001B0BB
:10232000704700BF0168CA6822F02002CA60CA680C
:1023300022F48072CA604A6922F001024A612021B7
:1023400080F8421000214163026B012A3CD10163F5
:10235000016851E8031F026821F0100142E80313ED
:10236000DBB1016851E8031F026821F0100142E867
:10237000031393B1016851E8031F026821F01001B3
:1023800042E803134BB1016851E8031F026821F0D2
:10239000100142E80313002BDAD101680A68D20663
:1023A00006D5002200920A680092496800910099BF
:1023B000818D01B0FFF742BA026852686FF35F2265
:1023C00021F8022B8162A5E701B0FFF7CDBD000027
:1023D00040F27410C2F20000FFF734BAFEE70000CA
:1023E0004EF60C50BFF34F8FCEF20000016804226E
:1023F00001F4E061C0F2FA5211430160BFF34F8F64
:1024000000BF00BF00BF00BFFAE700009AB0FEF7B0
:10241000C3F800240120CDE90744CDE9054402902A
:1024200006904FF4E0104FF4803102250B9002A883
:10243000CDE90314CDE90951FEF760FA20B1EFF3BD
:10244000108072B6FEE700BF0F20CDE90C054FF4F7
:102450008060CDE90F040CA802210E94FEF746F926
:1024600020B1EFF3108072B6FEE700BF41F2180012
:10247000C4F20200016840F6004941F01001016019
:102480000168C4F2010901F010010291029901688A
:1024900009F5806541F0200101600168002201F02A
:1024A00020010291029901684FF4005641F00401A5
:1024B00001600168002701F004010291029901689E
:1024C00041F00801016000684FF4005100F008007D
:1024D000029002982846FEF745F848464FF44041DE
:1024E00000224FF44048FEF73DF8029602AE4FF04E
:1024F000010A022428463146CDE903A70594FDF7D9
:1025000023FF48463146CDE9028ACDE90474FDF740
:102510001BFF40F2E40009F50051C2F2000042F254
:102520000F731997CDE91777CDE9147708978F22A4
:1025300080E88600C0E90337C0E90577FEF732FC82
:1025400020B1EFF3108072B6FEE700BF4FF4805069
:10255000169040F2E400C2F2000016A9FEF7B2FCA9
:1025600020B1EFF3108072B6FEE700BF40F2E40046
:10257000C2F20000FFF720F820B1EFF3108072B62E
:10258000FEE700BF40F2E400C2F2000014A9FEF72B
:10259000CBFB28B1EFF3108072B600BFFEE700BF9F
:1025A00060200C9040F2E4000025C2F200000CA96B
:1025B0000022CDE90D55CDE90F55CDE91155FEF7B6
:1025C000F5FE28B1EFF3108072B600BFFEE700BF42
:1025D0004FF40050079040F2E400C2F2000002A95C
:1025E0000695CDE90455CDE902550995FEF776FB30
:1025F00020B1EFF3108072B6FEE700BF40F2E400B6
:10260000C2F20000FEF7AAFE40F22C100021C2F236
:1026100000004FF08042C0E9002103224FF6FF7313
:10262000CDE902210122CDE90C11C0E902130161BB
:102630008161CDE90421CDE90611CDE908210A9196
:1026400002A9FEF70DFD28B1EFF3108072B600BFAE
:10265000FEE700BF40F22C10C2F200000CA9FEF70A
:1026600063FB28B1EFF3108072B600BFFEE700BF36
:1026700040F2741009F53051C2F2000000230C271B
:102680004FF4165280E80E00C0E90333C0E9057329
:10269000C361FFF787FB28B1EFF3108072B600BF6C
:1026A000FEE700BF40F2700BC2F2000B40F2741064
:1026B0000BF15801C2F200000D22FFF72BFC5AE08B
:1026C000DBF84000002100F057FF0027002814BF6E
:1026D00000250125CBF8545040F2E404C2F2000476
:1026E000DBF8506020460021FEF7DEFF304601F0A7
:1026F00053F8064648464FF400412A46FDF732FF9C
:1027000048464FF480413A46FDF72CFF2068F2B26C
:10271000C16A514348F21F52C5F2EB12A1FB0212EB
:10272000C2F34F114163BBF85800594621F8650FB9
:1027300051F8190C31F85F3CC870000A11F80B2CE5
:102740000871180A887151F8060C8A7031F8022C49
:10275000C1F8070040F274104B71A1F80B20C2F2CF
:1027600000000D224FF0FF33FFF760FCDBF808009C
:10277000032800F0DD819BF8000000284FF0FA00EC
:1027800008BF40F24D10ABF80200DBF8080001284A
:1027900004D0DBF808000228E8D138E1FDF7E8FEB4
:1027A0000546FDF7E5FE401B40F22C146428C2F2FA
:1027B000000408D82068406ACBF80C00FDF7D8FE6A
:1027C000401B6528F6D3DBE903104FF47A72081A30
:1027D000504340F27372C7F2287280FB0202DBE9B9
:1027E0000608931203EBD272CBF81420CBF810102A
:1027F00000F015FC0446DBF814000F4600F00FFC57
:1028000041F2C27AC5F2263A4AF205335246C3F67D
:10281000B27300F01BFC41F2876245F2F7330646C3
:102820000D4620463946CCF6D962C3F6EB7300F06C
:102830000DFC32462B4600F0C1F9054640460E46D7
:1028400000F0EDFB4AF205335246C3F6B27300F0D6
:10285000FDFB2A46334600F0B1F900F0B1FBDBF88E
:102860001410CBE90601CBF84400BBF80400DBF8F8
:102870004410401A00F0ACFF8046CBF8240000F072
:10288000D1FD0546DBF828000E4600F0CBFD0746DB
:102890000C462846314649F69A1549F69916C9F666
:1028A0009915C3F6B9762A46334600F0CFFB3A466F
:1028B000234600F083F900F04FF9DBF82C100746AF
:1028C000CBF82800404601F0E3F800F0ABFD2A46C3
:1028D000334600F01BFA00F03FF90546CBF8300014
:1028E000DBE90D60DBF83C40394601F005F80746AE
:1028F0003046414601F000F8394600F0BFFD06467B
:102900002046294600F0F8FF314600F0B7FDCBF82D
:102910004000CBF82C80DBF84060BBF802703846F2
:1029200000F06EFF05463046294600F025FE0028DF
:1029300008BFCBF84050DBF8400020F0004000F02A
:102940002BFF00F045FFCBF84800DBF8480000F013
:1029500023FF6421484390FBF7F040F2E4058BF835
:1029600001009BF80100C2F20005652824BF642025
:102970008BF801009BF80100002109289CBF0A2068
:102980008BF801009BF801402846FEF78DFE484673
:102990004FF400410122FDF7E5FD48464FF4804128
:1029A0000022FDF7DFFD286848F21F52C16AC5F218
:1029B000EB126143A1FB0212C2F34F114163BBF85A
:1029C0005800594621F8650F51F8210C31F8613C47
:1029D000C870000A11F80B2C0871180A887151F898
:1029E000060C8A7031F8022CC1F8070040F274100E
:1029F0004B71A1F80B20C2F200000D224FF0FF3303
:102A0000FFF714FBDBF8080002287FF4AFAEFDF7F8
:102A1000AFFD0546FDF7ACFD401B40F22C146428C9
:102A2000C2F2000408D82068406ACBF82000FDF705
:102A30009FFD401B6528F6D3DBF82000DBF834103F
:102A4000DBE90A540191CBF84C00BBF80600DBF837
:102A50004C10401A00F0BCFE0746CBF8240000F0F2
:102A6000E1FC06462846884600F0DCFC05468A461E
:102A70003046414649F69A1649F69918C9F699160C
:102A8000C3F6B9783246434600F0E0FA2A46534688
:102A900000F094F800F060F80546CBF828003846BE
:102AA000214600F0F5FF00F0BDFC3246434600F041
:102AB0002DF900F051F80646DBF838002946CBF82E
:102AC000306000F019FF05460198394600F014FF08
:102AD000294600F0D3FCDBF83C1005460846314699
:102AE00000F00AFF294600F0C9FCCBF84000CBF803
:102AF0002C70DBF8400020F0004000F04DFE00F0AC
:102B000067FECBF85000DBF84000002100F03BFDF1
:102B100000283FF4D5AD4FF0FF30CBF85400002033
:102B2000C4F24010CBF8500001270025D4E500BFC7
:102B300040F22C14C2F2000420680021416240F2ED
:102B4000E400C2F200000021FEF71EFE2046042130
:102B5000FEF7B8FBFFF744FC21F0004201F0004310
:102B6000A2F16052B2F5801F28BFD2F17F6C0BD961
:102B70005FEA001C43EAC20242EB507018BF704784
:102B800028BF20F001007047B2F5801FBCBF184677
:102B900070474FEA410C1CF5001F02D2084600F0B6
:102BA00072BF70B500F0FCFA00000089FFF7F6BFB5
:102BB0004FF00040A0F580007047000010B591EA8A
:102BC000030F48BF83F0004300F14683841A71EB82
:102BD000030C05D2121943EB0C03001B61EB0C0133
:102BE0004FEA1154A4EB135CDFF81CE11EEA430F1B
:102BF00018BF9EEA445F00F0748021EA045123EA82
:102C00000E0343F48013DCF1200E32D322FA0CFEC3
:102C100010EB0E0023FA0CFE41EB0E01CCF1200E5E
:102C200003FA0EFE10EB0E00CCF1200E51F1000164
:102C3000B1F5801F32D201EB045112FA0EF2BDE859
:102C4000104058BF7047401C38BF5FEA420218BFAF
:102C50007047002814BF20F0010041F100014FEA45
:102C6000410313F5001F38BF7047A1F1C04100F0C8
:102C7000E5BA012A43EB0302ACF1200CDCF11F0E94
:102C800032BF4FF0000E23FA0CF310EB030041EBC0
:102C90000451B4EB115FD0D0A1EB045101F58011C8
:102CA000490801EB04515FEA30000ED350F10000F7
:102CB00038BF12FA0EFE08D1BDE81040C9E7401C2B
:102CC00038BF5FEA4202CAD1C3E7BDE810404FEA0D
:102CD000410313F5001F38BF7047A1F1C04100F058
:102CE000ADBA9EEA445F08D011EA5E0FBDE810401D
:102CF00004BF01F0004100207047BDE8104070B5EE
:102D000000F04EFA64FBBE3E0000E0FF2DE9C0413A
:102D100030B4DFF8A4C23CEA111418BF3CEA131423
:102D200000F0ED801CEA111481EA030544EAD57431
:102D300018BF1CEA131500F0C880A4EB050404F1C9
:102D40007F7404F500344FF0004545EAC12145EA9F
:102D5000C32341EA505143EA52534FEAC0204FEA9D
:102D6000C222994208BF904200F09D804FEA13654D
:102D70000FF24416765D4FEA134506FB05F7C7F1DF
:102D8000807706FB07F74FEAD737A7FB0368764241
:102D9000A7FB06CEC8F5803838BFA8F1010807FBAD
:102DA00008E6A6FB028C4FF0000EE6FB03CEDCF13A
:102DB000000CCEF1004E38BFAEF1010EA6FB0C5850
:102DC0004FF00007E6FB0E87A1FB08C6A0FB07CE6D
:102DD00016EB0E064FF0000545F10005E1FB076517
:102DE00015F1E04E7EBFA4F580345FEA46066D41E2
:102DF00016F1800745F100054FEA172747EA0567F6
:102E00004FEA15254FEA0666A6F1DE46B6F1805F69
:102E100020D9384605EBC47124F0010C01EB0C11EC
:102E2000BCF1FE6F02D8F0BCBDE8008124425CBF5B
:102E300001F5801E9EEAC47F02D4F0BCBDE800818B
:102E4000244200F13980A1F1C041F0BCBDE800414D
:102E500000F0F4B94FEAD02040EA41504FEAD121C6
:102E60004FEAD22242EA43524FEAD323A7FB02861B
:102E700007FB036605FB02661EEA0E0F58BFA6EBB2
:102E80000056B6EB00564FEA520E4EEAC37E18EBE0
:102E90000E0E56EB530EBCD518EB02085E417F1C9C
:102EA00055F10005B5E74FF480154FF000074FF0DE
:102EB00000064FF00008ACE701F1C04101F000410D
:102EC0004FF00000F0BCBDE800810CEA131511EAD8
:102ED0000C1F00D00CE013EA0C1F00F026804FF00E
:102EE000000081EA030101F00041F0BCBDE800816F
:102EF000F0BCBDE8004181EA030100F09FB9F0BCDD
:102F0000BDE8004170B500F04BF900BF097EFC3E02
:102F100000F007B84FF0000081EA030101F0004122
:102F2000704781EA030100F089B9F0BCBDE80041B7
:102F300022494FF000007047FFFDFBF9F7F5F4F26E
:102F4000F0EEEDEBE9E8E6E4E3E1E0DEDDDBDAD844
:102F5000D7D5D4D3D1D0CFCDCCCBCAC8C7C6C5C4A2
:102F6000C2C1C0BFBEBDBCBBBAB9B8B7B6B5B4B3B9
:102F7000B2B1B0AFAEADACABAAA9A8A8A7A6A5A4A4
:102F8000A3A3A2A1A09F9F9E9D9C9C9B9A99999868
:102F90009797969595949393929191908F8F8E8E0B
:102FA0008D8C8C8B8B8A8989888887878685858498
:102FB00084838382828181800000FF070000F87F84
:102FC0004FEA41034FEA5353A3F58063D3F11E0345
:102FD000C8BFD3F1210C0CDD4FF0004242EAC12200
:102FE00042EA505232FA03FC8CEAE17CACEBE1702D
:102FF0007047102BC4BF0020704703F5787CBCF1EC
:10300000FF3F04D06FF0004282EA2100704770B5A4
:1030100000F0C6F84992248000207047F2E710F0D3
:10302000004248BF4042B0FA80F310FA03F10AD0E0
:10303000C3F11D0303F5806302EB03524FEA4150D5
:1030400002EBD12170474FF00000704770B5DFF8F8
:1030500048C11CEA111E1EBF1CEA13159EEA0C0F84
:1030600095EA0C0F00F06F8081EA03044EEAD47EEB
:10307000AE4421EA4C1123EA4C1341F4801143F48D
:103080008013AEF17F7EA1FB024CA0FB03653619D5
:1030900055EB0C05A1FB034C4CF10003A0FB021CFB
:1030A00016EB0C06654153F10003094218BF46F0C8
:1030B000010613F4007F0BD14FEA03314FEA0530CC
:1030C00041EA155140EA165034036FF003020AE05A
:1030D0004FEAC3214FEAC52041EA555140EA565014
:1030E000F4026FF0020202EB2E4201EB025585EA78
:1030F000CE710AD05FEA440C18BF24F0004450F1AE
:10310000000041F1000120EAD47040F2FE7C6245EB
:1031100000D270BDA84214BF4FF080444FF040442D
:10312000002E08BF0024BEF1806FA8BFA1F1C041EE
:10313000BDE8704080F2828001F1C04101F00041A1
:103140004FF0000070470CEA13159EEA0C0F18BFF1
:1031500095EA0C0F06D081EA030E4FF000000EF046
:10316000004170BD00F01CF88900013E00F007B876
:1031700000F009B84FEA430C5FEA5C5C08D081EAD2
:10318000030100F05BB84FEA410C5FEA5C5CF6D1EA
:1031900002494FF0000070470000FF070000F87F71
:1031A0000EF1020E2EF0030E5EF8046B364205D4CB
:1031B000012A43EB030515F5001F12D8012841EB46
:1031C000010C1CF5001F0CD80ED14FEAD17C0CEB82
:1031D0004C0C0CF1020C15F5001F08BF4CEBD37C16
:1031E00004E04FF0080C01E04FEAD37C0CEB4C05F7
:1031F00026FA05F606F00706B6F1040C06D20EEB29
:10320000860CBDE870404CF0010C6047DFE80CF024
:10321000090B02024FF00041A1F500214FF0000020
:1032200070BD19461046012851EB010418BFD4F5B2
:10323000001484BF002001F0004170BD0808A0F513
:1032400000114FEA3101704710B591EA030F48BFF2
:1032500083F000433FF5BAAC841A71EB030C07D23C
:103260008CF0004C121943EB0C03001B61EB0C01BA
:103270004FEA1154A4EB135CDFF8A4E11EEA430FFC
:1032800018BF9EEA445F00F0B48021EA045123EAAB
:103290006E035242C3EB6E0338BF5B1EDCF1200E9F
:1032A00025D322FA0CFE10EB0E0043FA0CFE41EB84
:1032B0000E01CCF1200E03FA0EFE10EB0E00CCF145
:1032C000200E51F1000129D401EB045112FA0EF243
:1032D000BDE8104058BF7047401C1CBFB2F1004F02
:1032E000704700280CBF491C20F00100704712EB0A
:1032F000020E43EB030218BF4FF0010E4EEA4202EA
:10330000ACF1200CDCF11E0E56D943FA0CFE10EB8A
:103310000E00CCF11E0E51F1FF31D5D50EF1010E8C
:1033200012FA0EFE404141EB010101EB445C5FEA01
:103330005C5C10D901EB045110EBDE7038BFBEF1BC
:10334000004FBDE8104018BF704700280CBF491C53
:1033500020F00100704734D24FEAD42C24F40064EA
:1033600011F500111BD0B1FA81F20B3AA41AA41E78
:10337000D2F12003914030FA03F31943904001EB5E
:10338000CC7101EB0451002CBDE81040A8BF704780
:1033900001F1C04101F000414FF000007047B0FA68
:1033A00080F310FA03F102D1BDE810407047E41A2F
:1033B000173C4805C90AE2E701EB0451BDE810409B
:1033C000704749104FEA300001EB0451BDE810404E
:1033D00002E04FF0000170474A0008BF0042F8D0F9
:1033E000B2F5001F28BF704701F000414FF0000008
:1033F00070479EEA445F07D011EA5E0FBDE81040B7
:1034000004BF002100207047BDE8104070B5FFF7F1
:10341000C7FE00BF40DFF63E104683F00041704714
:103420000000E0FF43004FEAD30C4FEA3C0C43405E
:103430001FBF40070CF1605113F0FE4F70471CF0A6
:10344000006F03D10CF00041002070470CF00043E6
:1034500043EA507040EACC0010B500F0CEFA00BF4D
:10346000000000924FEA0001FFF7E8BE4FF0004174
:10347000A1F500214FF000007047000090EA010F15
:1034800048BF81F0004100F10A83421A3CBF801A14
:1034900089184FEAD052A2EBD1534FF07F4C1CEA6F
:1034A000410F18BF9CEA026F00F03B804FF0004CC8
:1034B0004CEA00204CEA012121FA03FC10EB0C0C31
:1034C0001ED202F1FF325FEA1C2040EBC25038BF2F
:1034D00070471CF07F0F4FEA400C18BFBCF17F4FC4
:1034E00038BF7047C3F12003994008BF20F00100A6
:1034F000BCF17F4F38BF7047A0F1C04000F0C3BAA5
:103500004FEA3C00000A40EBC25028BF1CF0FF0FFE
:103510004FEA400CE6D018BFBCF17F4F38BF704770
:10352000EAE79CEA026F05D010EA5C0F08BF00F0E2
:103530000040704710B500F060FA00BF64FBBE3E6B
:1035400010B500F0F5F80CBF0120002010BD10B53B
:1035500000F0EEF814BF0120002010BD10B500F0FF
:1035600063F98CBF0120002010BD10B500F05CF99C
:103570002CBF0120002010BD10B500F089F994BFC8
:103580000120002010BD10B500F082F934BF0120E9
:10359000002010BD401058BFC0F14040491058BF36
:1035A000C1F140418142EFF3008070474FF47F0C3E
:1035B0001CEAD0121EBF1CEAD11392EA0C0F93EA48
:1035C0000C0F00F0858090EA010F48BF42F4807232
:1035D00040F4000C41F400002CF07F4120F07F40CB
:1035E00000B5A2EB030281420FF2081CACEB504E77
:1035F0009EF800E0C0F100004FEA4E0E00FB0EFC0A
:1036000038BF49004FEA2C1C0CFB0EF34FEACE1ECC
:103610000EEB635E4FEA112C0EFB0CFC4FEAC1214E
:103620004FEA1C5300FB031102F5FA024FEA112C7A
:103630000EFB0CFC4FEA01314FEADC4C00FB0C1195
:1036400042EB2242C14228BF09184CEB03335DF81C
:1036500004EB10EB410143EBC250B2F57C0F38BFD5
:10366000704729D512F0F00F1CBF00F1C04000F0E8
:1036700000407047008182838485868788898B8C8F
:103680008D8E8F919293959697999A9C9D9FA0A2CB
:10369000A3A5A7A8AAACAEB0B2B3B5B7B9BCBEC01B
:1036A000C2C5C7C9CCCED1D4D7D9DCDFE2E6E9ECBC
:1036B000F0F3F7FAFE0000004FEA400C0CF1807CBA
:1036C000BCF17E4F28BF7047B0F1C04000F0DBB9BD
:1036D0000CEAD11390EA010F48BF42F480726245B0
:1036E00038BF634507D213F47F0F16D080EA01007C
:1036F00000F00040704710B500F07FF9097EFC3EF5
:1037000000F005B880EA010000F00040704780EA50
:10371000010000F0004000F0B6B912F47F0F04BFC2
:103720000248704780EA010000F0ADB90000C07F98
:1037300050EA010C00F113801CF5000F58BFBCF5D6
:10374000000F01D48842704707D710F5000F58BF0B
:1037500011F5000F15D488427047894270471CF557
:10376000000F04D5BCF5000FF7D5814270474FF02C
:10377000807C1CEB400F38BF1CEB410F01D2814213
:10378000704710B500F039F9922449004FF000500D
:103790004FF08051FFF7FEBE41000B0ED3F19E02A9
:1037A00008D950F400034FEA032323FA02F048BF7C
:1037B0004042704710B500F020F900BF49922480C4
:1037C000002070476FF0004282EA2000704700003E
:1037D00010F0004148BF4042B0FA80F310FA03F203
:1037E000C3F19D030BD051EAC35101EB12205306E4
:1037F00038BF704700F1010008BF20F0010070479A
:10380000B0FA80F310FA03F2C3F19D030AD0D90590
:1038100001EB1220530638BF704700F1010008BFCA
:1038200020F001007047000050EA010C00F1138005
:103830001CF5000F58BFBCF5000F01D4884270473B
:1038400007D710F5000F58BF11F5000F15D48842A7
:103850007047894270471CF5000F04D5BCF5000F76
:10386000F7D5814270474FF0807C1CEB400F38BF8A
:103870001CEB410F01D28142704710B500F0BDF83A
:10388000922449004FF080504FF00051FFF782BE64
:1038900050EA010C00F113801CF5000F58BFBCF575
:1038A000000F01D48842704707D710F5000F58BFAA
:1038B00011F5000F15D488427047894270471CF5F6
:1038C000000F04D5BCF5000FF7D5814270474FF0CB
:1038D000807C1CEB400F38BF1CEB410F01D28142B2
:1038E000704710B500F089F8922449004FF000505D
:1038F0004FF08051FFF74EBE4FF47F0C1CEAD01200
:103900001EBF1CEAD11392EA0C0F93EA0C0F00F0D1
:10391000478090EA010F48BF42F480724FF0004C9C
:103920004CEA00204CEA012102EB0302A0FB011348
:10393000A2F50002002918BF43F001035B0028BF75
:103940004FEA330342EB22425FEA132C4CEBC250A6
:103950002EBFBCEB436FB2F57C0F70474FEA036C90
:10396000BCF1004F08BF20F00100B2F57C0F38BF5A
:1039700070470BD582F0FF0212F5803FC8BF704739
:1039800000F1C040D8BF00F00040704700F5000CC7
:103990005FEA4C0C48BF7047B0F1C04000F073B80C
:1039A0000CEAD11390EA010F48BF42F480726245DD
:1039B00038BF634504D280EA010000F00040704740
:1039C00010B500F01AF800BF8900013E00F007B8FA
:1039D00000F009B85FEA410C5FEA1C6C08D080EA8D
:1039E000010000F050B85FEA400C5FEA1C6CF6D1B1
:1039F0004FF00040A0F5800070470EF1020E2EF04F
:103A0000030E5EF8044B244204D44FEA4102B2F1A3
:103A10007F4F11D84FEA4003B3F17F4F0CD80ED13E
:103A20004FEAD07C0CEB4C0C0CF1020CB2F17F4F46
:103A300008BF4CEBD17C04E04FF0080C01E04FEAEA
:103A4000D17C0CEB4C0324FA03F404F00704B4F12A
:103A5000040C06D20EEB840CBDE810404CF0010CB7
:103A60006047DFE80CF0070802024FF00040A0F5C5
:103A7000800010BD0846420018BFD2F1807288BF96
:103A800000F0004010BDFF2141EAD050C005704752
:103A900090EA010F48BF81F000413FF5F6AC421AB1
:103AA00004D882F00042A0EB020011444FEAD05249
:103AB000A2EBD1534FF07F4C1CEA410F18BF9CEA98
:103AC000026F4AD04FF0004C4CEA00204CEA012132
:103AD00021FA03FCB0EB0C0C0FD412F0FE0F36D021
:103AE0005FEA4C001DD5001240EBC25038BF704752
:103AF0001CF03F0F18BF70470BE05FEA1C20A2F1DB
:103B0000010240EBC25038BF70471CF07F0F18BF56
:103B10007047C3F12003994014BF401E20F00100FC
:103B200070474FEA1223800808BF7047B0FA80FC44
:103B3000A2EB0C02CCF1280C60FA0CF093EA122FE5
:103B400004BF00EBC25070474FEAC3707047130ABE
:103B50005FEADC1008BF7047F6E79CEA026F04D00A
:103B600010EA5C0F08BF0020704710B5FFF745FF53
:103B700040DFF63E81F0004070470000000000008A
:103B8000000001020304060708090000000001020A
:103B90000304010202030405060708090A0B0C0DC1
:103BA0000E0F1010C83B000800000020100000009D
:103BB00028010008D83B000810000020B0070000D2
:103BC0004401000800000000010000001000000097
:083BD0000024F40000000000D5
:04000005080000ED02
:00000001FF
